{
  "_format": "hh-sol-artifact-1",
  "contractName": "TakerBot",
  "sourceName": "contracts/TakerBot.sol",
  "abi": [
    {
      "inputs": [],
      "stateMutability": "nonpayable",
      "type": "constructor"
    },
    {
      "inputs": [],
      "name": "DUSTSWEEPER_ADDRESS",
      "outputs": [
        {
          "internalType": "address",
          "name": "",
          "type": "address"
        }
      ],
      "stateMutability": "view",
      "type": "function"
    },
    {
      "inputs": [],
      "name": "ONE_INCH_ROUTER",
      "outputs": [
        {
          "internalType": "address",
          "name": "",
          "type": "address"
        }
      ],
      "stateMutability": "view",
      "type": "function"
    },
    {
      "inputs": [],
      "name": "acceptOwnershipTransfer",
      "outputs": [
        {
          "internalType": "bool",
          "name": "",
          "type": "bool"
        }
      ],
      "stateMutability": "nonpayable",
      "type": "function"
    },
    {
      "inputs": [
        {
          "internalType": "address",
          "name": "_futureOwner",
          "type": "address"
        }
      ],
      "name": "commitOwnershipTransfer",
      "outputs": [
        {
          "internalType": "bool",
          "name": "",
          "type": "bool"
        }
      ],
      "stateMutability": "nonpayable",
      "type": "function"
    },
    {
      "inputs": [],
      "name": "futureOwner",
      "outputs": [
        {
          "internalType": "address",
          "name": "",
          "type": "address"
        }
      ],
      "stateMutability": "view",
      "type": "function"
    },
    {
      "inputs": [
        {
          "internalType": "address",
          "name": "",
          "type": "address"
        },
        {
          "internalType": "address",
          "name": "",
          "type": "address"
        }
      ],
      "name": "isApproved",
      "outputs": [
        {
          "internalType": "bool",
          "name": "",
          "type": "bool"
        }
      ],
      "stateMutability": "view",
      "type": "function"
    },
    {
      "inputs": [],
      "name": "owner",
      "outputs": [
        {
          "internalType": "address",
          "name": "",
          "type": "address"
        }
      ],
      "stateMutability": "view",
      "type": "function"
    },
    {
      "inputs": [],
      "name": "payoutEth",
      "outputs": [],
      "stateMutability": "nonpayable",
      "type": "function"
    },
    {
      "inputs": [
        {
          "internalType": "address[]",
          "name": "makers",
          "type": "address[]"
        },
        {
          "internalType": "address[]",
          "name": "tokenAddresses",
          "type": "address[]"
        },
        {
          "components": [
            {
              "internalType": "uint8",
              "name": "v",
              "type": "uint8"
            },
            {
              "internalType": "bytes32",
              "name": "r",
              "type": "bytes32"
            },
            {
              "internalType": "bytes32",
              "name": "s",
              "type": "bytes32"
            },
            {
              "internalType": "bytes32",
              "name": "request",
              "type": "bytes32"
            },
            {
              "internalType": "uint256",
              "name": "deadline",
              "type": "uint256"
            },
            {
              "internalType": "bytes",
              "name": "payload",
              "type": "bytes"
            }
          ],
          "internalType": "struct TrustusPacket",
          "name": "packet",
          "type": "tuple"
        },
        {
          "internalType": "address[]",
          "name": "uniqueTokenAddresses",
          "type": "address[]"
        },
        {
          "internalType": "bytes[]",
          "name": "oneinchCallDataByToken",
          "type": "bytes[]"
        }
      ],
      "name": "runSweep",
      "outputs": [],
      "stateMutability": "payable",
      "type": "function"
    },
    {
      "stateMutability": "payable",
      "type": "receive"
    }
  ],
  "bytecode": "0x608060405234801561001057600080fd5b5033600160006101000a81548173ffffffffffffffffffffffffffffffffffffffff021916908373ffffffffffffffffffffffffffffffffffffffff160217905550611622806100616000396000f3fe60806040526004361061008a5760003560e01c80638e581819116100595780638e58181914610140578063a389783e1461015c578063b842e87f14610199578063b9e9d1aa146101c4578063dd3fd925146101ef57610091565b8063379fa167146100965780636ee9a7d0146100c157806382e4d2d4146100d85780638da5cb5b1461011557610091565b3661009157005b600080fd5b3480156100a257600080fd5b506100ab61021a565b6040516100b89190610ae2565b60405180910390f35b3480156100cd57600080fd5b506100d6610232565b005b3480156100e457600080fd5b506100ff60048036038101906100fa9190610b33565b61032d565b60405161010c9190610b7b565b60405180910390f35b34801561012157600080fd5b5061012a610409565b6040516101379190610ae2565b60405180910390f35b61015a60048036038101906101559190610c75565b61042f565b005b34801561016857600080fd5b50610183600480360381019061017e9190610d8d565b610540565b6040516101909190610b7b565b60405180910390f35b3480156101a557600080fd5b506101ae61056f565b6040516101bb9190610b7b565b60405180910390f35b3480156101d057600080fd5b506101d9610649565b6040516101e69190610ae2565b60405180910390f35b3480156101fb57600080fd5b5061020461066f565b6040516102119190610ae2565b60405180910390f35b7378106f7db3ebcee3d2cfac647f0e4c9b06683b3981565b600160009054906101000a900473ffffffffffffffffffffffffffffffffffffffff1673ffffffffffffffffffffffffffffffffffffffff163373ffffffffffffffffffffffffffffffffffffffff16146102c2576040517f08c379a00000000000000000000000000000000000000000000000000000000081526004016102b990610e50565b60405180910390fd5b600160009054906101000a900473ffffffffffffffffffffffffffffffffffffffff1673ffffffffffffffffffffffffffffffffffffffff166108fc479081150290604051600060405180830381858888f1935050505015801561032a573d6000803e3d6000fd5b50565b6000600160009054906101000a900473ffffffffffffffffffffffffffffffffffffffff1673ffffffffffffffffffffffffffffffffffffffff163373ffffffffffffffffffffffffffffffffffffffff16146103bf576040517f08c379a00000000000000000000000000000000000000000000000000000000081526004016103b690610e50565b60405180910390fd5b81600260006101000a81548173ffffffffffffffffffffffffffffffffffffffff021916908373ffffffffffffffffffffffffffffffffffffffff16021790555060019050919050565b600160009054906101000a900473ffffffffffffffffffffffffffffffffffffffff1681565b60007378106f7db3ebcee3d2cfac647f0e4c9b06683b3990508073ffffffffffffffffffffffffffffffffffffffff16630906ac41348c8c8c8c8c6040518763ffffffff1660e01b815260040161048a9594939291906111d5565b6000604051808303818588803b1580156104a357600080fd5b505af11580156104b7573d6000803e3d6000fd5b505050505060005b858590508110156105335761051f8686838181106104e0576104df611225565b5b90506020020160208101906104f59190610b33565b85858481811061050857610507611225565b5b905060200281019061051a9190611263565b610687565b50808061052b906112f5565b9150506104bf565b5050505050505050505050565b60006020528160005260406000206020528060005260406000206000915091509054906101000a900460ff1681565b6000600260009054906101000a900473ffffffffffffffffffffffffffffffffffffffff1673ffffffffffffffffffffffffffffffffffffffff163373ffffffffffffffffffffffffffffffffffffffff1614610601576040517f08c379a00000000000000000000000000000000000000000000000000000000081526004016105f8906113af565b60405180910390fd5b33600160006101000a81548173ffffffffffffffffffffffffffffffffffffffff021916908373ffffffffffffffffffffffffffffffffffffffff1602179055506001905090565b600260009054906101000a900473ffffffffffffffffffffffffffffffffffffffff1681565b731111111254eeb25477b68fb85ed929f73a96058281565b6000808473ffffffffffffffffffffffffffffffffffffffff166370a08231306040518263ffffffff1660e01b81526004016106c39190610ae2565b602060405180830381865afa1580156106e0573d6000803e3d6000fd5b505050506040513d601f19601f8201168201806040525081019061070491906113e4565b90506000811115610a9557600080731111111254eeb25477b68fb85ed929f73a96058273ffffffffffffffffffffffffffffffffffffffff1673ffffffffffffffffffffffffffffffffffffffff16815260200190815260200160002060008673ffffffffffffffffffffffffffffffffffffffff1673ffffffffffffffffffffffffffffffffffffffff16815260200190815260200160002060009054906101000a900460ff166109ce5760008573ffffffffffffffffffffffffffffffffffffffff1663dd62ed3e30731111111254eeb25477b68fb85ed929f73a9605826040518363ffffffff1660e01b8152600401610801929190611411565b602060405180830381865afa15801561081e573d6000803e3d6000fd5b505050506040513d601f19601f8201168201806040525081019061084291906113e4565b9050818110156109245760008673ffffffffffffffffffffffffffffffffffffffff1663095ea7b3731111111254eeb25477b68fb85ed929f73a960582856040518363ffffffff1660e01b815260040161089d929190611449565b6020604051808303816000875af11580156108bc573d6000803e3d6000fd5b505050506040513d601f19601f820116820180604052508101906108e0919061149e565b905080610922576040517f08c379a000000000000000000000000000000000000000000000000000000000815260040161091990611517565b60405180910390fd5b505b6001600080731111111254eeb25477b68fb85ed929f73a96058273ffffffffffffffffffffffffffffffffffffffff1673ffffffffffffffffffffffffffffffffffffffff16815260200190815260200160002060008873ffffffffffffffffffffffffffffffffffffffff1673ffffffffffffffffffffffffffffffffffffffff16815260200190815260200160002060006101000a81548160ff021916908315150217905550505b6000731111111254eeb25477b68fb85ed929f73a96058273ffffffffffffffffffffffffffffffffffffffff1660008686604051610a0d929190611567565b60006040518083038185875af1925050503d8060008114610a4a576040519150601f19603f3d011682016040523d82523d6000602084013e610a4f565b606091505b5050905080610a93576040517f08c379a0000000000000000000000000000000000000000000000000000000008152600401610a8a906115cc565b60405180910390fd5b505b60019150509392505050565b600073ffffffffffffffffffffffffffffffffffffffff82169050919050565b6000610acc82610aa1565b9050919050565b610adc81610ac1565b82525050565b6000602082019050610af76000830184610ad3565b92915050565b600080fd5b600080fd5b610b1081610ac1565b8114610b1b57600080fd5b50565b600081359050610b2d81610b07565b92915050565b600060208284031215610b4957610b48610afd565b5b6000610b5784828501610b1e565b91505092915050565b60008115159050919050565b610b7581610b60565b82525050565b6000602082019050610b906000830184610b6c565b92915050565b600080fd5b600080fd5b600080fd5b60008083601f840112610bbb57610bba610b96565b5b8235905067ffffffffffffffff811115610bd857610bd7610b9b565b5b602083019150836020820283011115610bf457610bf3610ba0565b5b9250929050565b600080fd5b600060c08284031215610c1657610c15610bfb565b5b81905092915050565b60008083601f840112610c3557610c34610b96565b5b8235905067ffffffffffffffff811115610c5257610c51610b9b565b5b602083019150836020820283011115610c6e57610c6d610ba0565b5b9250929050565b600080600080600080600080600060a08a8c031215610c9757610c96610afd565b5b60008a013567ffffffffffffffff811115610cb557610cb4610b02565b5b610cc18c828d01610ba5565b995099505060208a013567ffffffffffffffff811115610ce457610ce3610b02565b5b610cf08c828d01610ba5565b975097505060408a013567ffffffffffffffff811115610d1357610d12610b02565b5b610d1f8c828d01610c00565b95505060608a013567ffffffffffffffff811115610d4057610d3f610b02565b5b610d4c8c828d01610ba5565b945094505060808a013567ffffffffffffffff811115610d6f57610d6e610b02565b5b610d7b8c828d01610c1f565b92509250509295985092959850929598565b60008060408385031215610da457610da3610afd565b5b6000610db285828601610b1e565b9250506020610dc385828601610b1e565b9150509250929050565b600082825260208201905092915050565b7f4f6e6c7920746865206f776e65722063616e2063616c6c20746869732066756e60008201527f6374696f6e000000000000000000000000000000000000000000000000000000602082015250565b6000610e3a602583610dcd565b9150610e4582610dde565b604082019050919050565b60006020820190508181036000830152610e6981610e2d565b9050919050565b600082825260208201905092915050565b6000819050919050565b610e9481610ac1565b82525050565b6000610ea68383610e8b565b60208301905092915050565b6000610ec16020840184610b1e565b905092915050565b6000602082019050919050565b6000610ee28385610e70565b9350610eed82610e81565b8060005b85811015610f2657610f038284610eb2565b610f0d8882610e9a565b9750610f1883610ec9565b925050600181019050610ef1565b5085925050509392505050565b600060ff82169050919050565b610f4981610f33565b8114610f5457600080fd5b50565b600081359050610f6681610f40565b92915050565b6000610f7b6020840184610f57565b905092915050565b610f8c81610f33565b82525050565b6000819050919050565b610fa581610f92565b8114610fb057600080fd5b50565b600081359050610fc281610f9c565b92915050565b6000610fd76020840184610fb3565b905092915050565b610fe881610f92565b82525050565b6000819050919050565b61100181610fee565b811461100c57600080fd5b50565b60008135905061101e81610ff8565b92915050565b6000611033602084018461100f565b905092915050565b61104481610fee565b82525050565b600080fd5b600080fd5b600080fd5b6000808335600160200384360303811261107657611075611054565b5b83810192508235915060208301925067ffffffffffffffff82111561109e5761109d61104a565b5b6001820236038313156110b4576110b361104f565b5b509250929050565b600082825260208201905092915050565b82818337600083830152505050565b6000601f19601f8301169050919050565b60006110f983856110bc565b93506111068385846110cd565b61110f836110dc565b840190509392505050565b600060c0830161112d6000840184610f6c565b61113a6000860182610f83565b506111486020840184610fc8565b6111556020860182610fdf565b506111636040840184610fc8565b6111706040860182610fdf565b5061117e6060840184610fc8565b61118b6060860182610fdf565b506111996080840184611024565b6111a6608086018261103b565b506111b460a0840184611059565b85830360a08701526111c78382846110ed565b925050508091505092915050565b600060608201905081810360008301526111f0818789610ed6565b90508181036020830152611205818587610ed6565b90508181036040830152611219818461111a565b90509695505050505050565b7f4e487b7100000000000000000000000000000000000000000000000000000000600052603260045260246000fd5b600080fd5b600080fd5b600080fd5b600080833560016020038436030381126112805761127f611254565b5b80840192508235915067ffffffffffffffff8211156112a2576112a1611259565b5b6020830192506001820236038313156112be576112bd61125e565b5b509250929050565b7f4e487b7100000000000000000000000000000000000000000000000000000000600052601160045260246000fd5b600061130082610fee565b91507fffffffffffffffffffffffffffffffffffffffffffffffffffffffffffffffff8203611332576113316112c6565b5b600182019050919050565b7f4f6e6c792074686520667574757265206f776e65722063616e2061636365707460008201527f206f776e657273686970207472616e7366657200000000000000000000000000602082015250565b6000611399603383610dcd565b91506113a48261133d565b604082019050919050565b600060208201905081810360008301526113c88161138c565b9050919050565b6000815190506113de81610ff8565b92915050565b6000602082840312156113fa576113f9610afd565b5b6000611408848285016113cf565b91505092915050565b60006040820190506114266000830185610ad3565b6114336020830184610ad3565b9392505050565b61144381610fee565b82525050565b600060408201905061145e6000830185610ad3565b61146b602083018461143a565b9392505050565b61147b81610b60565b811461148657600080fd5b50565b60008151905061149881611472565b92915050565b6000602082840312156114b4576114b3610afd565b5b60006114c284828501611489565b91505092915050565b7f417070726f76616c206661696c65640000000000000000000000000000000000600082015250565b6000611501600f83610dcd565b915061150c826114cb565b602082019050919050565b60006020820190508181036000830152611530816114f4565b9050919050565b600081905092915050565b600061154e8385611537565b935061155b8385846110cd565b82840190509392505050565b6000611574828486611542565b91508190509392505050565b7f31494e43485f535741505f4641494c0000000000000000000000000000000000600082015250565b60006115b6600f83610dcd565b91506115c182611580565b602082019050919050565b600060208201905081810360008301526115e5816115a9565b905091905056fea2646970667358221220b7d27641ae9f2a3447055b1a4b3d28ad746a44d752d0c3c4cd58cbb453fcf53264736f6c63430008130033",
  "linkReferences": {},
  "deployedLinkReferences": {}
}